:020000040800F2
:100000001008002089010008E5010008E50100084A
:10001000E5010008E5010008E50100080000000016
:10002000000000000000000000000000E5010008E2
:10003000E501000800000000E5010008E5010008F6
:10004000E5010008E5010008E5010008E5010008F8
:10005000E5010008E5010008E5010008E5010008E8
:10006000E5010008E5010008E5010008E5010008D8
:10007000E5010008E5010008E5010008E5010008C8
:10008000E5010008E5010008E5010008E5010008B8
:10009000E5010008E5010008E5010008E5010008A8
:1000A000E5010008E5010008E5010008E501000898
:1000B000E5010008E5010008E5010008E501000888
:1000C000E5010008E5010008E5010008E501000878
:1000D000E5010008E5010008E5010008E501000868
:1000E000E5010008E5010008E5010008E501000858
:1000F000E5010008E5010008E5010008E501000848
:10010000E5010008E5010008E5010008E501000837
:10011000E5010008E5010008E5010008E501000827
:10012000E5010008E5010008E5010008E501000817
:10013000E5010008E5010008E5010008E501000807
:10014000E5010008E5010008E5010008E5010008F7
:10015000E5010008E5010008E5010008E5010008E7
:10016000E5010008E5010008E5010008E5010008D7
:10017000E5010008E5010008E5010008E5010008C7
:10018000E5010008E501000880B582B000AF104B22
:100190007B60104B3B6007E03B681A1D3A607A6851
:1001A000111D796012681A603A680B4B9A42F3D3BA
:1001B0000A480B494FF000028842B8BF40F8042BB0
:1001C000FFF6FAAF00F012F80837BD4680BD00BF59
:1001D000A4070008000000201000002010000020EC
:1001E0001000002080B400AFFEE700BF80B588B0EB
:1001F00000AF0023FB6100F02FFA3B1D184600F012
:10020000D5F80120012100F07BF94FF480737B6168
:1002100003237B7602233B760023BB760123FB7608
:1002200007F114033F48194600F088F94FF48000A5
:10023000002100F07FF80420012100F061F94FF463
:1002400000737B6103237B7602233B760023BB761E
:100250000123FB7607F114033348194600F06EF9C9
:100260000020002100F084F80820012100F048F966
:100270004FF470437B6103237B7601233B7600239D
:10028000BB760023FB7607F114032848194600F0DB
:1002900055F9264B4FF470425A83244B4FF4805249
:1002A0001A830023FB6102E0FB690133FB61FA69F9
:1002B0001F4B9A42F8D91D4B4FF470425A831B4B87
:1002C0004FF400521A830023FB6102E0FB69013303
:1002D000FB61FA69164B9A42F8D9144B4FF47042FD
:1002E0005A83124B4FF480421A830023FB6102E0D1
:1002F000FB690133FB61FA690D4B9A42F8D90B4B4C
:100300004FF470425A83094B4FF400421A83002382
:10031000FB6102E0FB690133FB61FA69044B9A421D
:10032000F8D9B6E70000024000080240000C024085
:100330003F420F0080B485B000AF78603960002381
:10034000FB600A4B9B68FB60FB6823F0EC63FB607F
:100350007A683B681343FA681343FB60034BFA68FF
:100360009A601437BD465DF8047B70470038024040
:1003700080B485B000AF786039600023FB600A4B21
:100380009B68FB60FB6823F07843FB607A683B68FE
:100390001343FA681343FB60034BFA689A601437FF
:1003A000BD465DF8047B70470038024080B489B0D8
:1003B00000AF78600023BB6100237B610023FB61F9
:1003C00002233B610023FB600223BB60484B9B6818
:1003D00003F00C03BB61BB69042B07D0082B09D0C9
:1003E000002B3FD17B68434A1A603FE07B68424A5A
:1003F0001A603BE03E4B5B6803F480039B0DFB609F
:100400003B4B5B6803F03F03BB60FB68002B0DD0E8
:10041000394ABB68B2FBF3F2354B596847F6C073F3
:100420000B409B0903FB02F3FB610CE0314ABB6804
:10043000B2FBF3F22E4B596847F6C0730B409B0991
:1004400003FB02F3FB612A4B5B6803F440331B0C94
:1004500001335B003B61FA693B69B2FBF3F27B68F5
:100460001A6003E07B68234A1A6000BF204B9B6838
:1004700003F0F003BB61BB691B09BB611F4ABB6989
:1004800013441B78DBB27B617B681A687B69DA40B6
:100490007B685A60164B9B6803F4E053BB61BB69F1
:1004A0009B0ABB61154ABB6913441B78DBB27B61B5
:1004B0007B685A687B69DA407B689A600C4B9B6862
:1004C00003F46043BB61BB695B0BBB610B4ABB6957
:1004D00013441B78DBB27B617B685A687B69DA4026
:1004E0007B68DA602437BD465DF8047B704700BF47
:1004F000003802400024F40000127A0000000020BE
:1005000080B483B000AF78600B46FB70FB78002BA3
:1005100006D0094B084A116B7A680A431A6306E051
:10052000054B054A116B7A68D2430A401A630C37AF
:10053000BD465DF8047B70470038024080B487B048
:1005400000AF7860396000237B6100233B610023AA
:10055000FB6000237B6176E07B69012202FA03F3F2
:100560003B613B681A683B691340FB60FA683B6972
:100570009A4265D17B681A687B695B00032101FAA6
:1005800003F3DB431A407B681A607B681A683B6898
:100590001B7919467B695B0001FA03F31A437B68F8
:1005A0001A603B681B79012B03D03B681B79022B37
:1005B0002ED17B689A687B695B00032101FA03F303
:1005C000DB431A407B689A607B689A683B685B797A
:1005D00019467B695B0001FA03F31A437B689A6052
:1005E0007B685A687B699BB2012101FA03F3DB4304
:1005F0001A407B685A607B685A683B689B79194649
:100600007B699BB201FA03F39BB21A437B685A6081
:100610007B68DA687B699BB25B00032101FA03F314
:10062000DB431A407B68DA607B68DA683B68DB7919
:1006300019467B695B0001FA03F31A437B68DA60B1
:100640007B6901337B617B690F2B85D91C37BD46E4
:100650005DF8047B704700BF80B500AF114B114AB5
:10066000126842F001021A600E4B00229A600D4A95
:100670000C4B1B6823F0847323F480331360094B05
:10068000094A5A60074B074A126822F480221A600E
:10069000044B0022DA6000F00BF8044B4FF00062CC
:1006A0009A6080BD003802401030002400ED00E068
:1006B00080B483B000AF00237B6000233B60354BE8
:1006C000344A126842F480321A60324B1B6803F4D9
:1006D00000333B607B6801337B603B68002B03D1B8
:1006E0007B68B3F5A06FF0D12A4B1B6803F400338D
:1006F000002B02D001233B6001E000233B603B68FC
:10070000012B42D1234B234A126C42F080521A64CF
:10071000214B214A126842F480421A601D4B1D4A47
:1007200092689A601B4B1B4A926842F400429A609E
:10073000184B184A926842F4A0529A60154B174A17
:100740005A60144B134A126842F080721A6000BF5C
:10075000104B1B6803F00073002BF9D0104B40F2D4
:1007600005621A600B4B0B4A926822F003029A60F2
:10077000084B084A926842F002029A6000BF054B9B
:100780009B6803F00C03082BF9D10C37BD465DF8CC
:10079000047B704700380240007000400854400756
:0407A000003C0240D7
:1007A4000000000001020304010203040607080913
:0400000508000000EF
:00000001FF
